{
  "_format": "hh-sol-artifact-1",
  "contractName": "ProofContract",
  "sourceName": "contracts/proof_contract.sol",
  "abi": [
    {
      "inputs": [
        {
          "internalType": "contract OrderContract",
          "name": "_orderContract",
          "type": "address"
        }
      ],
      "stateMutability": "nonpayable",
      "type": "constructor"
    },
    {
      "inputs": [
        {
          "internalType": "uint256",
          "name": "statementId",
          "type": "uint256"
        },
        {
          "internalType": "uint256",
          "name": "orderId",
          "type": "uint256"
        },
        {
          "internalType": "uint256",
          "name": "finalPrice",
          "type": "uint256"
        },
        {
          "internalType": "uint256",
          "name": "timestamp",
          "type": "uint256"
        },
        {
          "internalType": "address",
          "name": "producer",
          "type": "address"
        },
        {
          "internalType": "bytes32[]",
          "name": "proof",
          "type": "bytes32[]"
        }
      ],
      "name": "addProof",
      "outputs": [],
      "stateMutability": "nonpayable",
      "type": "function"
    },
    {
      "inputs": [
        {
          "internalType": "uint256",
          "name": "proofId",
          "type": "uint256"
        }
      ],
      "name": "getProof",
      "outputs": [
        {
          "components": [
            {
              "internalType": "uint256",
              "name": "id",
              "type": "uint256"
            },
            {
              "internalType": "uint256",
              "name": "statementId",
              "type": "uint256"
            },
            {
              "internalType": "uint256",
              "name": "orderId",
              "type": "uint256"
            },
            {
              "internalType": "uint256",
              "name": "finalPrice",
              "type": "uint256"
            },
            {
              "internalType": "uint256",
              "name": "timestamp",
              "type": "uint256"
            },
            {
              "internalType": "address",
              "name": "producer",
              "type": "address"
            },
            {
              "internalType": "bytes32[]",
              "name": "proof",
              "type": "bytes32[]"
            }
          ],
          "internalType": "struct Proof",
          "name": "",
          "type": "tuple"
        }
      ],
      "stateMutability": "view",
      "type": "function"
    },
    {
      "inputs": [],
      "name": "nextProofId",
      "outputs": [
        {
          "internalType": "uint256",
          "name": "",
          "type": "uint256"
        }
      ],
      "stateMutability": "view",
      "type": "function"
    },
    {
      "inputs": [
        {
          "internalType": "uint256",
          "name": "",
          "type": "uint256"
        }
      ],
      "name": "proofs",
      "outputs": [
        {
          "internalType": "uint256",
          "name": "id",
          "type": "uint256"
        },
        {
          "internalType": "uint256",
          "name": "statementId",
          "type": "uint256"
        },
        {
          "internalType": "uint256",
          "name": "orderId",
          "type": "uint256"
        },
        {
          "internalType": "uint256",
          "name": "finalPrice",
          "type": "uint256"
        },
        {
          "internalType": "uint256",
          "name": "timestamp",
          "type": "uint256"
        },
        {
          "internalType": "address",
          "name": "producer",
          "type": "address"
        }
      ],
      "stateMutability": "view",
      "type": "function"
    },
    {
      "inputs": [
        {
          "internalType": "uint256",
          "name": "statementId",
          "type": "uint256"
        },
        {
          "internalType": "uint256",
          "name": "orderId",
          "type": "uint256"
        },
        {
          "internalType": "uint256",
          "name": "finalPrice",
          "type": "uint256"
        },
        {
          "internalType": "uint256",
          "name": "timestamp",
          "type": "uint256"
        },
        {
          "internalType": "address",
          "name": "producer",
          "type": "address"
        },
        {
          "internalType": "bytes32[]",
          "name": "proof",
          "type": "bytes32[]"
        }
      ],
      "name": "verifyProof",
      "outputs": [
        {
          "internalType": "bool",
          "name": "",
          "type": "bool"
        }
      ],
      "stateMutability": "pure",
      "type": "function"
    }
  ],
  "bytecode": "0x608060405234801561001057600080fd5b506040516106e93803806106e983398101604081905261002f91610058565b60018055600280546001600160a01b0319166001600160a01b0392909216919091179055610088565b60006020828403121561006a57600080fd5b81516001600160a01b038116811461008157600080fd5b9392505050565b610652806100976000396000f3fe608060405234801561001057600080fd5b50600436106100675760003560e01c80633200ce8a116100505780633200ce8a146100a8578063803f8606146100d25780639ddaf5aa146100e757600080fd5b806308ac8d221461006c57806311149ada14610088575b600080fd5b61007560015481565b6040519081526020015b60405180910390f35b61009b610096366004610429565b610169565b60405161007f9190610442565b6100c26100b63660046104f1565b60019695505050505050565b604051901515815260200161007f565b6100e56100e03660046104f1565b610266565b005b6101336100f5366004610429565b60006020819052908152604090208054600182015460028301546003840154600485015460059095015493949293919290916001600160a01b031686565b60408051968752602087019590955293850192909252606084015260808301526001600160a01b031660a082015260c00161007f565b6101b26040518060e00160405280600081526020016000815260200160008152602001600081526020016000815260200160006001600160a01b03168152602001606081525090565b60008281526020818152604091829020825160e08101845281548152600182015481840152600282015481850152600382015460608201526004820154608082015260058201546001600160a01b031660a08201526006820180548551818602810186019096528086529194929360c0860193929083018282801561025657602002820191906000526020600020905b815481526020019060010190808311610242575b5050505050815250509050919050565b6040805160e0810182526001805480835260208084018b81528486018b8152606086018b8152608087018b81526001600160a01b038b811660a08a0190815260c08a018c815260009889528888529a909720895181559451978501979097559151600284015551600383015551600482015591516005830180547fffffffffffffffffffffffff00000000000000000000000000000000000000001691909416179092559251805192939261032192600685019201906103c9565b50506002546001546040517f87f02b420000000000000000000000000000000000000000000000000000000081526001600160a01b0390921692506387f02b4291610379918991600401918252602082015260400190565b600060405180830381600087803b15801561039357600080fd5b505af11580156103a7573d6000803e3d6000fd5b5050600180549250905060006103bc836105f5565b9190505550505050505050565b828054828255906000526020600020908101928215610404579160200282015b828111156104045782518255916020019190600101906103e9565b50610410929150610414565b5090565b5b808211156104105760008155600101610415565b60006020828403121561043b57600080fd5b5035919050565b6000602080835261010083018451828501528185015160408501526040850151606085015260608501516080850152608085015160a08501526001600160a01b0360a08601511660c085015260c085015160e080860152818151808452610120870191508483019350600092505b808310156104d057835182529284019260019290920191908401906104b0565b509695505050505050565b634e487b7160e01b600052604160045260246000fd5b60008060008060008060c0878903121561050a57600080fd5b863595506020808801359550604088013594506060880135935060808801356001600160a01b038116811461053e57600080fd5b925060a088013567ffffffffffffffff8082111561055b57600080fd5b818a0191508a601f83011261056f57600080fd5b813581811115610581576105816104db565b8060051b604051601f19603f830116810181811085821117156105a6576105a66104db565b60405291825284820192508381018501918d8311156105c457600080fd5b938501935b828510156105e2578435845293850193928501926105c9565b8096505050505050509295509295509295565b60006001820161061557634e487b7160e01b600052601160045260246000fd5b506001019056fea26469706673582212201cf9ecd1f7e067c70d19a3e51b1e94f1c322d57c9838ff99dbadea664706f6a464736f6c63430008120033",
  "linkReferences": {},
  "deployedLinkReferences": {}
}