{
  "_format": "hh-sol-artifact-1",
  "contractName": "ProofMarketEndpoint",
  "sourceName": "contracts/proof_market_endpoint.sol",
  "abi": [
    {
      "inputs": [],
      "stateMutability": "nonpayable",
      "type": "constructor"
    },
    {
      "inputs": [
        {
          "internalType": "uint256",
          "name": "statementId",
          "type": "uint256"
        },
        {
          "internalType": "uint256",
          "name": "orderId",
          "type": "uint256"
        },
        {
          "internalType": "uint256",
          "name": "finalPrice",
          "type": "uint256"
        },
        {
          "internalType": "uint256",
          "name": "timestamp",
          "type": "uint256"
        },
        {
          "internalType": "address",
          "name": "producer",
          "type": "address"
        },
        {
          "internalType": "bytes32[]",
          "name": "proof",
          "type": "bytes32[]"
        }
      ],
      "name": "addProof",
      "outputs": [],
      "stateMutability": "nonpayable",
      "type": "function"
    },
    {
      "inputs": [
        {
          "internalType": "uint256",
          "name": "statementId",
          "type": "uint256"
        },
        {
          "internalType": "bytes32",
          "name": "input",
          "type": "bytes32"
        },
        {
          "internalType": "uint256",
          "name": "price",
          "type": "uint256"
        },
        {
          "internalType": "address",
          "name": "buyer",
          "type": "address"
        }
      ],
      "name": "createOrder",
      "outputs": [],
      "stateMutability": "nonpayable",
      "type": "function"
    },
    {
      "inputs": [
        {
          "internalType": "uint256",
          "name": "orderId",
          "type": "uint256"
        }
      ],
      "name": "getOrder",
      "outputs": [
        {
          "components": [
            {
              "internalType": "uint256",
              "name": "id",
              "type": "uint256"
            },
            {
              "internalType": "uint256",
              "name": "statementId",
              "type": "uint256"
            },
            {
              "internalType": "bytes32",
              "name": "input",
              "type": "bytes32"
            },
            {
              "internalType": "uint256",
              "name": "price",
              "type": "uint256"
            },
            {
              "internalType": "uint256",
              "name": "createdOn",
              "type": "uint256"
            },
            {
              "internalType": "uint256",
              "name": "updatedOn",
              "type": "uint256"
            },
            {
              "internalType": "address",
              "name": "buyer",
              "type": "address"
            },
            {
              "internalType": "enum OrderStatus",
              "name": "status",
              "type": "uint8"
            },
            {
              "internalType": "uint256",
              "name": "proofId",
              "type": "uint256"
            }
          ],
          "internalType": "struct Order",
          "name": "",
          "type": "tuple"
        }
      ],
      "stateMutability": "view",
      "type": "function"
    },
    {
      "inputs": [
        {
          "internalType": "uint256",
          "name": "proofId",
          "type": "uint256"
        }
      ],
      "name": "getProof",
      "outputs": [
        {
          "components": [
            {
              "internalType": "uint256",
              "name": "id",
              "type": "uint256"
            },
            {
              "internalType": "uint256",
              "name": "statementId",
              "type": "uint256"
            },
            {
              "internalType": "uint256",
              "name": "orderId",
              "type": "uint256"
            },
            {
              "internalType": "uint256",
              "name": "finalPrice",
              "type": "uint256"
            },
            {
              "internalType": "uint256",
              "name": "timestamp",
              "type": "uint256"
            },
            {
              "internalType": "address",
              "name": "producer",
              "type": "address"
            },
            {
              "internalType": "bytes32[]",
              "name": "proof",
              "type": "bytes32[]"
            }
          ],
          "internalType": "struct Proof",
          "name": "",
          "type": "tuple"
        }
      ],
      "stateMutability": "view",
      "type": "function"
    }
  ],
  "bytecode": "0x608060405234801561001057600080fd5b5060405161001d906100b7565b604051809103906000f080158015610039573d6000803e3d6000fd5b50600080546001600160a01b0319166001600160a01b03929092169182179055604051610065906100c4565b6001600160a01b039091168152602001604051809103906000f080158015610091573d6000803e3d6000fd5b50600180546001600160a01b0319166001600160a01b03929092169190911790556100d1565b61069a80610a2283390190565b6106e9806110bc83390190565b610942806100e06000396000f3fe608060405234801561001057600080fd5b506004361061004c5760003560e01c806311149ada14610051578063803f86061461007a578063d09ef2411461008f578063fb490920146100af575b600080fd5b61006461005f3660046103b3565b6100c2565b60405161007191906103cc565b60405180910390f35b61008d610088366004610535565b61019b565b005b6100a261009d3660046103b3565b610228565b604051610071919061061b565b61008d6100bd3660046106a7565b6102b7565b61010b6040518060e00160405280600081526020016000815260200160008152602001600081526020016000815260200160006001600160a01b03168152602001606081525090565b6001546040517f11149ada000000000000000000000000000000000000000000000000000000008152600481018490526001600160a01b03909116906311149ada90602401600060405180830381865afa15801561016d573d6000803e3d6000fd5b505050506040513d6000823e601f3d908101601f191682016040526101959190810190610753565b92915050565b6001546040517f803f86060000000000000000000000000000000000000000000000000000000081526001600160a01b039091169063803f8606906101ee90899089908990899089908990600401610803565b600060405180830381600087803b15801561020857600080fd5b505af115801561021c573d6000803e3d6000fd5b50505050505050505050565b61023061034a565b6000546040517fd09ef241000000000000000000000000000000000000000000000000000000008152600481018490526001600160a01b039091169063d09ef2419060240161012060405180830381865afa158015610293573d6000803e3d6000fd5b505050506040513d601f19601f820116820180604052508101906101959190610885565b6000546040517ffb4909200000000000000000000000000000000000000000000000000000000081526004810186905260248101859052604481018490526001600160a01b0383811660648301529091169063fb49092090608401600060405180830381600087803b15801561032c57600080fd5b505af1158015610340573d6000803e3d6000fd5b5050505050505050565b60405180610120016040528060008152602001600081526020016000801916815260200160008152602001600081526020016000815260200160006001600160a01b03168152602001600060018111156103a6576103a6610605565b8152602001600081525090565b6000602082840312156103c557600080fd5b5035919050565b6000602080835261010083018451828501528185015160408501526040850151606085015260608501516080850152608085015160a08501526001600160a01b0360a08601511660c085015260c085015160e080860152818151808452610120870191508483019350600092505b8083101561045a578351825292840192600192909201919084019061043a565b509695505050505050565b6001600160a01b038116811461047a57600080fd5b50565b634e487b7160e01b600052604160045260246000fd5b60405160e0810167ffffffffffffffff811182821017156104b6576104b661047d565b60405290565b604051610120810167ffffffffffffffff811182821017156104b6576104b661047d565b604051601f8201601f1916810167ffffffffffffffff811182821017156105095761050961047d565b604052919050565b600067ffffffffffffffff82111561052b5761052b61047d565b5060051b60200190565b60008060008060008060c0878903121561054e57600080fd5b8635955060208088013595506040880135945060608801359350608088013561057681610465565b925060a088013567ffffffffffffffff81111561059257600080fd5b8801601f81018a136105a357600080fd5b80356105b66105b182610511565b6104e0565b81815260059190911b8201830190838101908c8311156105d557600080fd5b928401925b828410156105f3578335825292840192908401906105da565b80955050505050509295509295509295565b634e487b7160e01b600052602160045260246000fd5b600061012082019050825182526020830151602083015260408301516040830152606083015160608301526080830151608083015260a083015160a08301526001600160a01b0360c08401511660c083015260e08301516002811061069057634e487b7160e01b600052602160045260246000fd5b60e083015261010092830151929091019190915290565b600080600080608085870312156106bd57600080fd5b84359350602085013592506040850135915060608501356106dd81610465565b939692955090935050565b80516106f381610465565b919050565b600082601f83011261070957600080fd5b815160206107196105b183610511565b82815260059290921b8401810191818101908684111561073857600080fd5b8286015b8481101561045a578051835291830191830161073c565b60006020828403121561076557600080fd5b815167ffffffffffffffff8082111561077d57600080fd5b9083019060e0828603121561079157600080fd5b610799610493565b82518152602083015160208201526040830151604082015260608301516060820152608083015160808201526107d160a084016106e8565b60a082015260c0830151828111156107e857600080fd5b6107f4878286016106f8565b60c08301525095945050505050565b600060c08201888352602088818501528760408501528660608501526001600160a01b038616608085015260c060a085015281855180845260e086019150828701935060005b8181101561086557845183529383019391830191600101610849565b50909b9a5050505050505050505050565b8051600281106106f357600080fd5b6000610120828403121561089857600080fd5b6108a06104bc565b825181526020830151602082015260408301516040820152606083015160608201526080830151608082015260a083015160a08201526108e260c084016106e8565b60c08201526108f360e08401610876565b60e082015261010092830151928101929092525091905056fea264697066735822122083f783a8dde92042df934bc045c5c76f3ad07dd3ce41e5cd30f3c0383b1a3b5764736f6c63430008120033608060405234801561001057600080fd5b5060018055610676806100246000396000f3fe608060405234801561001057600080fd5b50600436106100675760003560e01c8063a85c38ef11610050578063a85c38ef1461009d578063d09ef24114610119578063fb4909201461013957600080fd5b80632a58b3301461006c57806387f02b4214610088575b600080fd5b61007560015481565b6040519081526020015b60405180910390f35b61009b61009636600461048a565b61014c565b005b6101046100ab3660046104ac565b600060208190529081526040902080546001820154600283015460038401546004850154600586015460068701546007909701549596949593949293919290916001600160a01b03821691600160a01b900460ff169089565b60405161007f999897969594939291906104fd565b61012c6101273660046104ac565b610212565b60405161007f9190610558565b61009b6101473660046105cc565b6102c9565b60008281526020819052604090205482146101c7576040517f08c379a000000000000000000000000000000000000000000000000000000000815260206004820152600f60248201527f4f72646572206e6f7420666f756e640000000000000000000000000000000000604482015260640160405180910390fd5b6000918252602082905260409091206006810180547fffffffffffffffffffffff00ffffffffffffffffffffffffffffffffffffffff16600160a01b17905542600582015560070155565b61021a610421565b6000828152602081815260409182902082516101208101845281548152600180830154938201939093526002820154938101939093526003810154606084015260048101546080840152600581015460a084015260068101546001600160a01b03811660c0850152909160e0840191600160a01b900460ff16908111156102a3576102a36104c5565b60018111156102b4576102b46104c5565b81526020016007820154815250509050919050565b60006040518061012001604052806001548152602001868152602001858152602001848152602001428152602001428152602001836001600160a01b031681526020016000600181111561031f5761031f6104c5565b815260006020918201819052600180548252818352604091829020845181559284015183820155908301516002830155606083015160038301556080830151600483015560a0830151600583015560c08301516006830180546001600160a01b039092167fffffffffffffffffffffffff000000000000000000000000000000000000000083168117825560e086015195965086959391927fffffffffffffffffffffff000000000000000000000000000000000000000000161790600160a01b9084908111156103f2576103f26104c5565b021790555061010091909101516007909101556001805490600061041583610619565b91905055505050505050565b60405180610120016040528060008152602001600081526020016000801916815260200160008152602001600081526020016000815260200160006001600160a01b031681526020016000600181111561047d5761047d6104c5565b8152602001600081525090565b6000806040838503121561049d57600080fd5b50508035926020909101359150565b6000602082840312156104be57600080fd5b5035919050565b634e487b7160e01b600052602160045260246000fd5b600281106104f957634e487b7160e01b600052602160045260246000fd5b9052565b6000610120820190508a82528960208301528860408301528760608301528660808301528560a08301526001600160a01b03851660c083015261054360e08301856104db565b826101008301529a9950505050505050505050565b600061012082019050825182526020830151602083015260408301516040830152606083015160608301526080830151608083015260a083015160a08301526001600160a01b0360c08401511660c083015260e08301516105bc60e08401826104db565b5061010092830151919092015290565b600080600080608085870312156105e257600080fd5b84359350602085013592506040850135915060608501356001600160a01b038116811461060e57600080fd5b939692955090935050565b60006001820161063957634e487b7160e01b600052601160045260246000fd5b506001019056fea264697066735822122075bfd5825a6772421822b949cd9d9416f2207fe8b6962df6a0a1977ae451f4a564736f6c63430008120033608060405234801561001057600080fd5b506040516106e93803806106e983398101604081905261002f91610058565b60018055600280546001600160a01b0319166001600160a01b0392909216919091179055610088565b60006020828403121561006a57600080fd5b81516001600160a01b038116811461008157600080fd5b9392505050565b610652806100976000396000f3fe608060405234801561001057600080fd5b50600436106100675760003560e01c80633200ce8a116100505780633200ce8a146100a8578063803f8606146100d25780639ddaf5aa146100e757600080fd5b806308ac8d221461006c57806311149ada14610088575b600080fd5b61007560015481565b6040519081526020015b60405180910390f35b61009b610096366004610429565b610169565b60405161007f9190610442565b6100c26100b63660046104f1565b60019695505050505050565b604051901515815260200161007f565b6100e56100e03660046104f1565b610266565b005b6101336100f5366004610429565b60006020819052908152604090208054600182015460028301546003840154600485015460059095015493949293919290916001600160a01b031686565b60408051968752602087019590955293850192909252606084015260808301526001600160a01b031660a082015260c00161007f565b6101b26040518060e00160405280600081526020016000815260200160008152602001600081526020016000815260200160006001600160a01b03168152602001606081525090565b60008281526020818152604091829020825160e08101845281548152600182015481840152600282015481850152600382015460608201526004820154608082015260058201546001600160a01b031660a08201526006820180548551818602810186019096528086529194929360c0860193929083018282801561025657602002820191906000526020600020905b815481526020019060010190808311610242575b5050505050815250509050919050565b6040805160e0810182526001805480835260208084018b81528486018b8152606086018b8152608087018b81526001600160a01b038b811660a08a0190815260c08a018c815260009889528888529a909720895181559451978501979097559151600284015551600383015551600482015591516005830180547fffffffffffffffffffffffff00000000000000000000000000000000000000001691909416179092559251805192939261032192600685019201906103c9565b50506002546001546040517f87f02b420000000000000000000000000000000000000000000000000000000081526001600160a01b0390921692506387f02b4291610379918991600401918252602082015260400190565b600060405180830381600087803b15801561039357600080fd5b505af11580156103a7573d6000803e3d6000fd5b5050600180549250905060006103bc836105f5565b9190505550505050505050565b828054828255906000526020600020908101928215610404579160200282015b828111156104045782518255916020019190600101906103e9565b50610410929150610414565b5090565b5b808211156104105760008155600101610415565b60006020828403121561043b57600080fd5b5035919050565b6000602080835261010083018451828501528185015160408501526040850151606085015260608501516080850152608085015160a08501526001600160a01b0360a08601511660c085015260c085015160e080860152818151808452610120870191508483019350600092505b808310156104d057835182529284019260019290920191908401906104b0565b509695505050505050565b634e487b7160e01b600052604160045260246000fd5b60008060008060008060c0878903121561050a57600080fd5b863595506020808801359550604088013594506060880135935060808801356001600160a01b038116811461053e57600080fd5b925060a088013567ffffffffffffffff8082111561055b57600080fd5b818a0191508a601f83011261056f57600080fd5b813581811115610581576105816104db565b8060051b604051601f19603f830116810181811085821117156105a6576105a66104db565b60405291825284820192508381018501918d8311156105c457600080fd5b938501935b828510156105e2578435845293850193928501926105c9565b8096505050505050509295509295509295565b60006001820161061557634e487b7160e01b600052601160045260246000fd5b506001019056fea26469706673582212201cf9ecd1f7e067c70d19a3e51b1e94f1c322d57c9838ff99dbadea664706f6a464736f6c63430008120033",
  "linkReferences": {},
  "deployedLinkReferences": {}
}