{
  "_format": "hh-sol-artifact-1",
  "contractName": "OrderContract",
  "sourceName": "contracts/order_contract.sol",
  "abi": [
    {
      "inputs": [],
      "stateMutability": "nonpayable",
      "type": "constructor"
    },
    {
      "inputs": [
        {
          "internalType": "uint256",
          "name": "orderId",
          "type": "uint256"
        },
        {
          "internalType": "uint256",
          "name": "proofId",
          "type": "uint256"
        }
      ],
      "name": "closeOrder",
      "outputs": [],
      "stateMutability": "nonpayable",
      "type": "function"
    },
    {
      "inputs": [
        {
          "internalType": "uint256",
          "name": "statementId",
          "type": "uint256"
        },
        {
          "internalType": "bytes32",
          "name": "input",
          "type": "bytes32"
        },
        {
          "internalType": "uint256",
          "name": "price",
          "type": "uint256"
        },
        {
          "internalType": "address",
          "name": "buyer",
          "type": "address"
        }
      ],
      "name": "createOrder",
      "outputs": [],
      "stateMutability": "nonpayable",
      "type": "function"
    },
    {
      "inputs": [
        {
          "internalType": "uint256",
          "name": "orderId",
          "type": "uint256"
        }
      ],
      "name": "getOrder",
      "outputs": [
        {
          "components": [
            {
              "internalType": "uint256",
              "name": "id",
              "type": "uint256"
            },
            {
              "internalType": "uint256",
              "name": "statementId",
              "type": "uint256"
            },
            {
              "internalType": "bytes32",
              "name": "input",
              "type": "bytes32"
            },
            {
              "internalType": "uint256",
              "name": "price",
              "type": "uint256"
            },
            {
              "internalType": "uint256",
              "name": "createdOn",
              "type": "uint256"
            },
            {
              "internalType": "uint256",
              "name": "updatedOn",
              "type": "uint256"
            },
            {
              "internalType": "address",
              "name": "buyer",
              "type": "address"
            },
            {
              "internalType": "enum OrderStatus",
              "name": "status",
              "type": "uint8"
            },
            {
              "internalType": "uint256",
              "name": "proofId",
              "type": "uint256"
            }
          ],
          "internalType": "struct Order",
          "name": "",
          "type": "tuple"
        }
      ],
      "stateMutability": "view",
      "type": "function"
    },
    {
      "inputs": [],
      "name": "nextOrderId",
      "outputs": [
        {
          "internalType": "uint256",
          "name": "",
          "type": "uint256"
        }
      ],
      "stateMutability": "view",
      "type": "function"
    },
    {
      "inputs": [
        {
          "internalType": "uint256",
          "name": "",
          "type": "uint256"
        }
      ],
      "name": "orders",
      "outputs": [
        {
          "internalType": "uint256",
          "name": "id",
          "type": "uint256"
        },
        {
          "internalType": "uint256",
          "name": "statementId",
          "type": "uint256"
        },
        {
          "internalType": "bytes32",
          "name": "input",
          "type": "bytes32"
        },
        {
          "internalType": "uint256",
          "name": "price",
          "type": "uint256"
        },
        {
          "internalType": "uint256",
          "name": "createdOn",
          "type": "uint256"
        },
        {
          "internalType": "uint256",
          "name": "updatedOn",
          "type": "uint256"
        },
        {
          "internalType": "address",
          "name": "buyer",
          "type": "address"
        },
        {
          "internalType": "enum OrderStatus",
          "name": "status",
          "type": "uint8"
        },
        {
          "internalType": "uint256",
          "name": "proofId",
          "type": "uint256"
        }
      ],
      "stateMutability": "view",
      "type": "function"
    }
  ],
  "bytecode": "0x608060405234801561001057600080fd5b5060018055610676806100246000396000f3fe608060405234801561001057600080fd5b50600436106100675760003560e01c8063a85c38ef11610050578063a85c38ef1461009d578063d09ef24114610119578063fb4909201461013957600080fd5b80632a58b3301461006c57806387f02b4214610088575b600080fd5b61007560015481565b6040519081526020015b60405180910390f35b61009b61009636600461048a565b61014c565b005b6101046100ab3660046104ac565b600060208190529081526040902080546001820154600283015460038401546004850154600586015460068701546007909701549596949593949293919290916001600160a01b03821691600160a01b900460ff169089565b60405161007f999897969594939291906104fd565b61012c6101273660046104ac565b610212565b60405161007f9190610558565b61009b6101473660046105cc565b6102c9565b60008281526020819052604090205482146101c7576040517f08c379a000000000000000000000000000000000000000000000000000000000815260206004820152600f60248201527f4f72646572206e6f7420666f756e640000000000000000000000000000000000604482015260640160405180910390fd5b6000918252602082905260409091206006810180547fffffffffffffffffffffff00ffffffffffffffffffffffffffffffffffffffff16600160a01b17905542600582015560070155565b61021a610421565b6000828152602081815260409182902082516101208101845281548152600180830154938201939093526002820154938101939093526003810154606084015260048101546080840152600581015460a084015260068101546001600160a01b03811660c0850152909160e0840191600160a01b900460ff16908111156102a3576102a36104c5565b60018111156102b4576102b46104c5565b81526020016007820154815250509050919050565b60006040518061012001604052806001548152602001868152602001858152602001848152602001428152602001428152602001836001600160a01b031681526020016000600181111561031f5761031f6104c5565b815260006020918201819052600180548252818352604091829020845181559284015183820155908301516002830155606083015160038301556080830151600483015560a0830151600583015560c08301516006830180546001600160a01b039092167fffffffffffffffffffffffff000000000000000000000000000000000000000083168117825560e086015195965086959391927fffffffffffffffffffffff000000000000000000000000000000000000000000161790600160a01b9084908111156103f2576103f26104c5565b021790555061010091909101516007909101556001805490600061041583610619565b91905055505050505050565b60405180610120016040528060008152602001600081526020016000801916815260200160008152602001600081526020016000815260200160006001600160a01b031681526020016000600181111561047d5761047d6104c5565b8152602001600081525090565b6000806040838503121561049d57600080fd5b50508035926020909101359150565b6000602082840312156104be57600080fd5b5035919050565b634e487b7160e01b600052602160045260246000fd5b600281106104f957634e487b7160e01b600052602160045260246000fd5b9052565b6000610120820190508a82528960208301528860408301528760608301528660808301528560a08301526001600160a01b03851660c083015261054360e08301856104db565b826101008301529a9950505050505050505050565b600061012082019050825182526020830151602083015260408301516040830152606083015160608301526080830151608083015260a083015160a08301526001600160a01b0360c08401511660c083015260e08301516105bc60e08401826104db565b5061010092830151919092015290565b600080600080608085870312156105e257600080fd5b84359350602085013592506040850135915060608501356001600160a01b038116811461060e57600080fd5b939692955090935050565b60006001820161063957634e487b7160e01b600052601160045260246000fd5b506001019056fea264697066735822122075bfd5825a6772421822b949cd9d9416f2207fe8b6962df6a0a1977ae451f4a564736f6c63430008120033",
  "linkReferences": {},
  "deployedLinkReferences": {}
}